{
  "contractName": "soulboundToken",
  "abi": [
    {
      "inputs": [
        {
          "internalType": "string",
          "name": "_name",
          "type": "string"
        },
        {
          "internalType": "string",
          "name": "_symbol",
          "type": "string"
        }
      ],
      "stateMutability": "nonpayable",
      "type": "constructor"
    },
    {
      "anonymous": false,
      "inputs": [
        {
          "indexed": true,
          "internalType": "address",
          "name": "owner",
          "type": "address"
        },
        {
          "indexed": true,
          "internalType": "address",
          "name": "approved",
          "type": "address"
        },
        {
          "indexed": true,
          "internalType": "uint256",
          "name": "tokenId",
          "type": "uint256"
        }
      ],
      "name": "Approval",
      "type": "event"
    },
    {
      "anonymous": false,
      "inputs": [
        {
          "indexed": true,
          "internalType": "address",
          "name": "owner",
          "type": "address"
        },
        {
          "indexed": true,
          "internalType": "address",
          "name": "operator",
          "type": "address"
        },
        {
          "indexed": false,
          "internalType": "bool",
          "name": "approved",
          "type": "bool"
        }
      ],
      "name": "ApprovalForAll",
      "type": "event"
    },
    {
      "anonymous": false,
      "inputs": [
        {
          "indexed": true,
          "internalType": "address",
          "name": "previousOwner",
          "type": "address"
        },
        {
          "indexed": true,
          "internalType": "address",
          "name": "newOwner",
          "type": "address"
        }
      ],
      "name": "OwnershipTransferred",
      "type": "event"
    },
    {
      "anonymous": false,
      "inputs": [
        {
          "indexed": true,
          "internalType": "address",
          "name": "from",
          "type": "address"
        },
        {
          "indexed": true,
          "internalType": "address",
          "name": "to",
          "type": "address"
        },
        {
          "indexed": true,
          "internalType": "uint256",
          "name": "tokenId",
          "type": "uint256"
        }
      ],
      "name": "Transfer",
      "type": "event"
    },
    {
      "inputs": [
        {
          "internalType": "address",
          "name": "to",
          "type": "address"
        },
        {
          "internalType": "uint256",
          "name": "tokenId",
          "type": "uint256"
        }
      ],
      "name": "approve",
      "outputs": [],
      "stateMutability": "nonpayable",
      "type": "function"
    },
    {
      "inputs": [
        {
          "internalType": "address",
          "name": "owner",
          "type": "address"
        }
      ],
      "name": "balanceOf",
      "outputs": [
        {
          "internalType": "uint256",
          "name": "",
          "type": "uint256"
        }
      ],
      "stateMutability": "view",
      "type": "function",
      "constant": true
    },
    {
      "inputs": [
        {
          "internalType": "uint256",
          "name": "tokenId",
          "type": "uint256"
        }
      ],
      "name": "getApproved",
      "outputs": [
        {
          "internalType": "address",
          "name": "",
          "type": "address"
        }
      ],
      "stateMutability": "view",
      "type": "function",
      "constant": true
    },
    {
      "inputs": [
        {
          "internalType": "address",
          "name": "owner",
          "type": "address"
        },
        {
          "internalType": "address",
          "name": "operator",
          "type": "address"
        }
      ],
      "name": "isApprovedForAll",
      "outputs": [
        {
          "internalType": "bool",
          "name": "",
          "type": "bool"
        }
      ],
      "stateMutability": "view",
      "type": "function",
      "constant": true
    },
    {
      "inputs": [],
      "name": "name",
      "outputs": [
        {
          "internalType": "string",
          "name": "",
          "type": "string"
        }
      ],
      "stateMutability": "view",
      "type": "function",
      "constant": true
    },
    {
      "inputs": [],
      "name": "owner",
      "outputs": [
        {
          "internalType": "address",
          "name": "",
          "type": "address"
        }
      ],
      "stateMutability": "view",
      "type": "function",
      "constant": true
    },
    {
      "inputs": [
        {
          "internalType": "uint256",
          "name": "tokenId",
          "type": "uint256"
        }
      ],
      "name": "ownerOf",
      "outputs": [
        {
          "internalType": "address",
          "name": "",
          "type": "address"
        }
      ],
      "stateMutability": "view",
      "type": "function",
      "constant": true
    },
    {
      "inputs": [],
      "name": "renounceOwnership",
      "outputs": [],
      "stateMutability": "nonpayable",
      "type": "function"
    },
    {
      "inputs": [
        {
          "internalType": "address",
          "name": "from",
          "type": "address"
        },
        {
          "internalType": "address",
          "name": "to",
          "type": "address"
        },
        {
          "internalType": "uint256",
          "name": "tokenId",
          "type": "uint256"
        }
      ],
      "name": "safeTransferFrom",
      "outputs": [],
      "stateMutability": "nonpayable",
      "type": "function"
    },
    {
      "inputs": [
        {
          "internalType": "address",
          "name": "from",
          "type": "address"
        },
        {
          "internalType": "address",
          "name": "to",
          "type": "address"
        },
        {
          "internalType": "uint256",
          "name": "tokenId",
          "type": "uint256"
        },
        {
          "internalType": "bytes",
          "name": "_data",
          "type": "bytes"
        }
      ],
      "name": "safeTransferFrom",
      "outputs": [],
      "stateMutability": "nonpayable",
      "type": "function"
    },
    {
      "inputs": [
        {
          "internalType": "address",
          "name": "operator",
          "type": "address"
        },
        {
          "internalType": "bool",
          "name": "approved",
          "type": "bool"
        }
      ],
      "name": "setApprovalForAll",
      "outputs": [],
      "stateMutability": "nonpayable",
      "type": "function"
    },
    {
      "inputs": [],
      "name": "symbol",
      "outputs": [
        {
          "internalType": "string",
          "name": "",
          "type": "string"
        }
      ],
      "stateMutability": "view",
      "type": "function",
      "constant": true
    },
    {
      "inputs": [
        {
          "internalType": "uint256",
          "name": "index",
          "type": "uint256"
        }
      ],
      "name": "tokenByIndex",
      "outputs": [
        {
          "internalType": "uint256",
          "name": "",
          "type": "uint256"
        }
      ],
      "stateMutability": "view",
      "type": "function",
      "constant": true
    },
    {
      "inputs": [
        {
          "internalType": "address",
          "name": "owner",
          "type": "address"
        },
        {
          "internalType": "uint256",
          "name": "index",
          "type": "uint256"
        }
      ],
      "name": "tokenOfOwnerByIndex",
      "outputs": [
        {
          "internalType": "uint256",
          "name": "",
          "type": "uint256"
        }
      ],
      "stateMutability": "view",
      "type": "function",
      "constant": true
    },
    {
      "inputs": [],
      "name": "totalSupply",
      "outputs": [
        {
          "internalType": "uint256",
          "name": "",
          "type": "uint256"
        }
      ],
      "stateMutability": "view",
      "type": "function",
      "constant": true
    },
    {
      "inputs": [
        {
          "internalType": "address",
          "name": "from",
          "type": "address"
        },
        {
          "internalType": "address",
          "name": "to",
          "type": "address"
        },
        {
          "internalType": "uint256",
          "name": "tokenId",
          "type": "uint256"
        }
      ],
      "name": "transferFrom",
      "outputs": [],
      "stateMutability": "nonpayable",
      "type": "function"
    },
    {
      "inputs": [
        {
          "internalType": "address",
          "name": "newOwner",
          "type": "address"
        }
      ],
      "name": "transferOwnership",
      "outputs": [],
      "stateMutability": "nonpayable",
      "type": "function"
    },
    {
      "inputs": [
        {
          "internalType": "string",
          "name": "uri",
          "type": "string"
        }
      ],
      "name": "createNFT",
      "outputs": [],
      "stateMutability": "nonpayable",
      "type": "function"
    },
    {
      "inputs": [
        {
          "internalType": "uint256",
          "name": "tokenId",
          "type": "uint256"
        }
      ],
      "name": "destroyNFT",
      "outputs": [],
      "stateMutability": "nonpayable",
      "type": "function"
    },
    {
      "inputs": [
        {
          "internalType": "uint256",
          "name": "tokenId",
          "type": "uint256"
        }
      ],
      "name": "tokenURI",
      "outputs": [
        {
          "internalType": "string",
          "name": "",
          "type": "string"
        }
      ],
      "stateMutability": "view",
      "type": "function",
      "constant": true
    },
    {
      "inputs": [
        {
          "internalType": "bytes4",
          "name": "interfaceId",
          "type": "bytes4"
        }
      ],
      "name": "supportsInterface",
      "outputs": [
        {
          "internalType": "bool",
          "name": "",
          "type": "bool"
        }
      ],
      "stateMutability": "view",
      "type": "function",
      "constant": true
    }
  ],
  "bytecode": "0x60806040523480156200001157600080fd5b50604051620040983803806200409883398181016040528101906200003791906200028f565b8181620000596200004d6200009560201b60201c565b6200009d60201b60201c565b81600190805190602001906200007192919062000161565b5080600290805190602001906200008a92919062000161565b505050505062000498565b600033905090565b60008060009054906101000a900473ffffffffffffffffffffffffffffffffffffffff169050816000806101000a81548173ffffffffffffffffffffffffffffffffffffffff021916908373ffffffffffffffffffffffffffffffffffffffff1602179055508173ffffffffffffffffffffffffffffffffffffffff168173ffffffffffffffffffffffffffffffffffffffff167f8be0079c531659141344cd1fd0a4f28419497f9722a3daafe3b4186f6b6457e060405160405180910390a35050565b8280546200016f90620003a9565b90600052602060002090601f016020900481019282620001935760008555620001df565b82601f10620001ae57805160ff1916838001178555620001df565b82800160010185558215620001df579182015b82811115620001de578251825591602001919060010190620001c1565b5b509050620001ee9190620001f2565b5090565b5b808211156200020d576000816000905550600101620001f3565b5090565b60006200022862000222846200033d565b62000314565b90508281526020810184848401111562000247576200024662000478565b5b6200025484828562000373565b509392505050565b600082601f83011262000274576200027362000473565b5b81516200028684826020860162000211565b91505092915050565b60008060408385031215620002a957620002a862000482565b5b600083015167ffffffffffffffff811115620002ca57620002c96200047d565b5b620002d8858286016200025c565b925050602083015167ffffffffffffffff811115620002fc57620002fb6200047d565b5b6200030a858286016200025c565b9150509250929050565b60006200032062000333565b90506200032e8282620003df565b919050565b6000604051905090565b600067ffffffffffffffff8211156200035b576200035a62000444565b5b620003668262000487565b9050602081019050919050565b60005b838110156200039357808201518184015260208101905062000376565b83811115620003a3576000848401525b50505050565b60006002820490506001821680620003c257607f821691505b60208210811415620003d957620003d862000415565b5b50919050565b620003ea8262000487565b810181811067ffffffffffffffff821117156200040c576200040b62000444565b5b80604052505050565b7f4e487b7100000000000000000000000000000000000000000000000000000000600052602260045260246000fd5b7f4e487b7100000000000000000000000000000000000000000000000000000000600052604160045260246000fd5b600080fd5b600080fd5b600080fd5b600080fd5b6000601f19601f8301169050919050565b613bf080620004a86000396000f3fe608060405234801561001057600080fd5b50600436106101375760003560e01c806370a08231116100b8578063b88d4fde1161007c578063b88d4fde1461034e578063c40412b51461036a578063c87b56dd14610386578063da2ed03e146103b6578063e985e9c5146103d2578063f2fde38b1461040257610137565b806370a08231146102bc578063715018a6146102ec5780638da5cb5b146102f657806395d89b4114610314578063a22cb4651461033257610137565b806323b872dd116100ff57806323b872dd146101f45780632f745c591461021057806342842e0e146102405780634f6ccce71461025c5780636352211e1461028c57610137565b806301ffc9a71461013c57806306fdde031461016c578063081812fc1461018a578063095ea7b3146101ba57806318160ddd146101d6575b600080fd5b61015660048036038101906101519190612861565b61041e565b6040516101639190612de0565b60405180910390f35b610174610430565b6040516101819190612dfb565b60405180910390f35b6101a4600480360381019061019f9190612904565b6104c2565b6040516101b19190612d79565b60405180910390f35b6101d460048036038101906101cf9190612821565b610547565b005b6101de61065f565b6040516101eb91906130dd565b60405180910390f35b61020e6004803603810190610209919061270b565b61066c565b005b61022a60048036038101906102259190612821565b6106cc565b60405161023791906130dd565b60405180910390f35b61025a6004803603810190610255919061270b565b610771565b005b61027660048036038101906102719190612904565b610791565b60405161028391906130dd565b60405180910390f35b6102a660048036038101906102a19190612904565b610802565b6040516102b39190612d79565b60405180910390f35b6102d660048036038101906102d1919061269e565b6108b4565b6040516102e391906130dd565b60405180910390f35b6102f461096c565b005b6102fe6109f4565b60405161030b9190612d79565b60405180910390f35b61031c610a1d565b6040516103299190612dfb565b60405180910390f35b61034c600480360381019061034791906127e1565b610aaf565b005b6103686004803603810190610363919061275e565b610ac5565b005b610384600480360381019061037f9190612904565b610b27565b005b6103a0600480360381019061039b9190612904565b610ba9565b6040516103ad9190612dfb565b60405180910390f35b6103d060048036038101906103cb91906128bb565b610bbb565b005b6103ec60048036038101906103e791906126cb565b610c1e565b6040516103f99190612de0565b60405180910390f35b61041c6004803603810190610417919061269e565b610cb2565b005b600061042982610daa565b9050919050565b60606001805461043f90613333565b80601f016020809104026020016040519081016040528092919081815260200182805461046b90613333565b80156104b85780601f1061048d576101008083540402835291602001916104b8565b820191906000526020600020905b81548152906001019060200180831161049b57829003601f168201915b5050505050905090565b60006104cd82610e24565b61050c576040517f08c379a000000000000000000000000000000000000000000000000000000000815260040161050390612fdd565b60405180910390fd5b6005600083815260200190815260200160002060009054906101000a900473ffffffffffffffffffffffffffffffffffffffff169050919050565b600061055282610802565b90508073ffffffffffffffffffffffffffffffffffffffff168373ffffffffffffffffffffffffffffffffffffffff1614156105c3576040517f08c379a00000000000000000000000000000000000000000000000000000000081526004016105ba9061305d565b60405180910390fd5b8073ffffffffffffffffffffffffffffffffffffffff166105e2610e90565b73ffffffffffffffffffffffffffffffffffffffff16148061061157506106108161060b610e90565b610c1e565b5b610650576040517f08c379a000000000000000000000000000000000000000000000000000000000815260040161064790612f1d565b60405180910390fd5b61065a8383610e98565b505050565b6000600980549050905090565b61067d610677610e90565b82610f51565b6106bc576040517f08c379a00000000000000000000000000000000000000000000000000000000081526004016106b39061307d565b60405180910390fd5b6106c783838361102f565b505050565b60006106d7836108b4565b8210610718576040517f08c379a000000000000000000000000000000000000000000000000000000000815260040161070f90612e1d565b60405180910390fd5b600760008473ffffffffffffffffffffffffffffffffffffffff1673ffffffffffffffffffffffffffffffffffffffff168152602001908152602001600020600083815260200190815260200160002054905092915050565b61078c83838360405180602001604052806000815250610ac5565b505050565b600061079b61065f565b82106107dc576040517f08c379a00000000000000000000000000000000000000000000000000000000081526004016107d39061309d565b60405180910390fd5b600982815481106107f0576107ef6134cc565b5b90600052602060002001549050919050565b6000806003600084815260200190815260200160002060009054906101000a900473ffffffffffffffffffffffffffffffffffffffff169050600073ffffffffffffffffffffffffffffffffffffffff168173ffffffffffffffffffffffffffffffffffffffff1614156108ab576040517f08c379a00000000000000000000000000000000000000000000000000000000081526004016108a290612f5d565b60405180910390fd5b80915050919050565b60008073ffffffffffffffffffffffffffffffffffffffff168273ffffffffffffffffffffffffffffffffffffffff161415610925576040517f08c379a000000000000000000000000000000000000000000000000000000000815260040161091c90612f3d565b60405180910390fd5b600460008373ffffffffffffffffffffffffffffffffffffffff1673ffffffffffffffffffffffffffffffffffffffff168152602001908152602001600020549050919050565b610974610e90565b73ffffffffffffffffffffffffffffffffffffffff166109926109f4565b73ffffffffffffffffffffffffffffffffffffffff16146109e8576040517f08c379a00000000000000000000000000000000000000000000000000000000081526004016109df90612ffd565b60405180910390fd5b6109f26000611296565b565b60008060009054906101000a900473ffffffffffffffffffffffffffffffffffffffff16905090565b606060028054610a2c90613333565b80601f0160208091040260200160405190810160405280929190818152602001828054610a5890613333565b8015610aa55780601f10610a7a57610100808354040283529160200191610aa5565b820191906000526020600020905b815481529060010190602001808311610a8857829003601f168201915b5050505050905090565b610ac1610aba610e90565b838361135a565b5050565b610ad6610ad0610e90565b83610f51565b610b15576040517f08c379a0000000000000000000000000000000000000000000000000000000008152600401610b0c9061307d565b60405180910390fd5b610b21848484846114c7565b50505050565b610b3081610802565b73ffffffffffffffffffffffffffffffffffffffff163373ffffffffffffffffffffffffffffffffffffffff1614610b9d576040517f08c379a0000000000000000000000000000000000000000000000000000000008152600401610b949061303d565b60405180910390fd5b610ba681611523565b50565b6060610bb48261152f565b9050919050565b610bc733600c54611681565b610bd3600c548261169f565b6001600d6000600c54815260200190815260200160002060006101000a81548160ff0219169083151502179055506001600c6000828254610c1491906131c2565b9250508190555050565b6000600660008473ffffffffffffffffffffffffffffffffffffffff1673ffffffffffffffffffffffffffffffffffffffff16815260200190815260200160002060008373ffffffffffffffffffffffffffffffffffffffff1673ffffffffffffffffffffffffffffffffffffffff16815260200190815260200160002060009054906101000a900460ff16905092915050565b610cba610e90565b73ffffffffffffffffffffffffffffffffffffffff16610cd86109f4565b73ffffffffffffffffffffffffffffffffffffffff1614610d2e576040517f08c379a0000000000000000000000000000000000000000000000000000000008152600401610d2590612ffd565b60405180910390fd5b600073ffffffffffffffffffffffffffffffffffffffff168173ffffffffffffffffffffffffffffffffffffffff161415610d9e576040517f08c379a0000000000000000000000000000000000000000000000000000000008152600401610d9590612e5d565b60405180910390fd5b610da781611296565b50565b60007f780e9d63000000000000000000000000000000000000000000000000000000007bffffffffffffffffffffffffffffffffffffffffffffffffffffffff1916827bffffffffffffffffffffffffffffffffffffffffffffffffffffffff19161480610e1d5750610e1c82611713565b5b9050919050565b60008073ffffffffffffffffffffffffffffffffffffffff166003600084815260200190815260200160002060009054906101000a900473ffffffffffffffffffffffffffffffffffffffff1673ffffffffffffffffffffffffffffffffffffffff1614159050919050565b600033905090565b816005600083815260200190815260200160002060006101000a81548173ffffffffffffffffffffffffffffffffffffffff021916908373ffffffffffffffffffffffffffffffffffffffff160217905550808273ffffffffffffffffffffffffffffffffffffffff16610f0b83610802565b73ffffffffffffffffffffffffffffffffffffffff167f8c5be1e5ebec7d5bd14f71427d1e84f3dd0314c0f7b2291e5b200ac8c7c3b92560405160405180910390a45050565b6000610f5c82610e24565b610f9b576040517f08c379a0000000000000000000000000000000000000000000000000000000008152600401610f9290612efd565b60405180910390fd5b6000610fa683610802565b90508073ffffffffffffffffffffffffffffffffffffffff168473ffffffffffffffffffffffffffffffffffffffff16148061101557508373ffffffffffffffffffffffffffffffffffffffff16610ffd846104c2565b73ffffffffffffffffffffffffffffffffffffffff16145b8061102657506110258185610c1e565b5b91505092915050565b8273ffffffffffffffffffffffffffffffffffffffff1661104f82610802565b73ffffffffffffffffffffffffffffffffffffffff16146110a5576040517f08c379a000000000000000000000000000000000000000000000000000000000815260040161109c90612e7d565b60405180910390fd5b600073ffffffffffffffffffffffffffffffffffffffff168273ffffffffffffffffffffffffffffffffffffffff161415611115576040517f08c379a000000000000000000000000000000000000000000000000000000000815260040161110c90612ebd565b60405180910390fd5b6111208383836117f5565b61112b600082610e98565b6001600460008573ffffffffffffffffffffffffffffffffffffffff1673ffffffffffffffffffffffffffffffffffffffff168152602001908152602001600020600082825461117b9190613249565b925050819055506001600460008473ffffffffffffffffffffffffffffffffffffffff1673ffffffffffffffffffffffffffffffffffffffff16815260200190815260200160002060008282546111d291906131c2565b92505081905550816003600083815260200190815260200160002060006101000a81548173ffffffffffffffffffffffffffffffffffffffff021916908373ffffffffffffffffffffffffffffffffffffffff160217905550808273ffffffffffffffffffffffffffffffffffffffff168473ffffffffffffffffffffffffffffffffffffffff167fddf252ad1be2c89b69c2b068fc378daa952ba7f163c4a11628f55a4df523b3ef60405160405180910390a4611291838383611866565b505050565b60008060009054906101000a900473ffffffffffffffffffffffffffffffffffffffff169050816000806101000a81548173ffffffffffffffffffffffffffffffffffffffff021916908373ffffffffffffffffffffffffffffffffffffffff1602179055508173ffffffffffffffffffffffffffffffffffffffff168173ffffffffffffffffffffffffffffffffffffffff167f8be0079c531659141344cd1fd0a4f28419497f9722a3daafe3b4186f6b6457e060405160405180910390a35050565b8173ffffffffffffffffffffffffffffffffffffffff168373ffffffffffffffffffffffffffffffffffffffff1614156113c9576040517f08c379a00000000000000000000000000000000000000000000000000000000081526004016113c090612edd565b60405180910390fd5b80600660008573ffffffffffffffffffffffffffffffffffffffff1673ffffffffffffffffffffffffffffffffffffffff16815260200190815260200160002060008473ffffffffffffffffffffffffffffffffffffffff1673ffffffffffffffffffffffffffffffffffffffff16815260200190815260200160002060006101000a81548160ff0219169083151502179055508173ffffffffffffffffffffffffffffffffffffffff168373ffffffffffffffffffffffffffffffffffffffff167f17307eab39ab6107e8899845ad3d59bd9653f200f220920489ca2b5937696c31836040516114ba9190612de0565b60405180910390a3505050565b6114d284848461102f565b6114de8484848461186b565b61151d576040517f08c379a000000000000000000000000000000000000000000000000000000000815260040161151490612e3d565b60405180910390fd5b50505050565b61152c81611a02565b50565b606061153a82610e24565b611579576040517f08c379a000000000000000000000000000000000000000000000000000000000815260040161157090612fbd565b60405180910390fd5b6000600b6000848152602001908152602001600020805461159990613333565b80601f01602080910402602001604051908101604052809291908181526020018280546115c590613333565b80156116125780601f106115e757610100808354040283529160200191611612565b820191906000526020600020905b8154815290600101906020018083116115f557829003601f168201915b505050505090506000611623611a55565b905060008151141561163957819250505061167c565b60008251111561166e578082604051602001611656929190612d26565b6040516020818303038152906040529250505061167c565b61167784611a6c565b925050505b919050565b61169b828260405180602001604052806000815250611b13565b5050565b6116a882610e24565b6116e7576040517f08c379a00000000000000000000000000000000000000000000000000000000081526004016116de90612f7d565b60405180910390fd5b80600b6000848152602001908152602001600020908051906020019061170e929190612472565b505050565b60007f80ac58cd000000000000000000000000000000000000000000000000000000007bffffffffffffffffffffffffffffffffffffffffffffffffffffffff1916827bffffffffffffffffffffffffffffffffffffffffffffffffffffffff191614806117de57507f5b5e139f000000000000000000000000000000000000000000000000000000007bffffffffffffffffffffffffffffffffffffffffffffffffffffffff1916827bffffffffffffffffffffffffffffffffffffffffffffffffffffffff1916145b806117ee57506117ed82611b6e565b5b9050919050565b600d600082815260200190815260200160002060009054906101000a900460ff1615611856576040517f08c379a000000000000000000000000000000000000000000000000000000000815260040161184d906130bd565b60405180910390fd5b611861838383611bd8565b505050565b505050565b600061188c8473ffffffffffffffffffffffffffffffffffffffff16611cec565b156119f5578373ffffffffffffffffffffffffffffffffffffffff1663150b7a026118b5610e90565b8786866040518563ffffffff1660e01b81526004016118d79493929190612d94565b602060405180830381600087803b1580156118f157600080fd5b505af192505050801561192257506040513d601f19601f8201168201806040525081019061191f919061288e565b60015b6119a5573d8060008114611952576040519150601f19603f3d011682016040523d82523d6000602084013e611957565b606091505b5060008151141561199d576040517f08c379a000000000000000000000000000000000000000000000000000000000815260040161199490612e3d565b60405180910390fd5b805181602001fd5b63150b7a0260e01b7bffffffffffffffffffffffffffffffffffffffffffffffffffffffff1916817bffffffffffffffffffffffffffffffffffffffffffffffffffffffff1916149150506119fa565b600190505b949350505050565b611a0b81611d0f565b6000600b60008381526020019081526020016000208054611a2b90613333565b905014611a5257600b60008281526020019081526020016000206000611a5191906124f8565b5b50565b606060405180602001604052806000815250905090565b6060611a7782610e24565b611ab6576040517f08c379a0000000000000000000000000000000000000000000000000000000008152600401611aad9061301d565b60405180910390fd5b6000611ac0611a55565b90506000815111611ae05760405180602001604052806000815250611b0b565b80611aea84611e2c565b604051602001611afb929190612d4a565b6040516020818303038152906040525b915050919050565b611b1d8383611f8d565b611b2a600084848461186b565b611b69576040517f08c379a0000000000000000000000000000000000000000000000000000000008152600401611b6090612e3d565b60405180910390fd5b505050565b60007f01ffc9a7000000000000000000000000000000000000000000000000000000007bffffffffffffffffffffffffffffffffffffffffffffffffffffffff1916827bffffffffffffffffffffffffffffffffffffffffffffffffffffffff1916149050919050565b611be3838383612167565b600073ffffffffffffffffffffffffffffffffffffffff168373ffffffffffffffffffffffffffffffffffffffff161415611c2657611c218161216c565b611c65565b8173ffffffffffffffffffffffffffffffffffffffff168373ffffffffffffffffffffffffffffffffffffffff1614611c6457611c6383826121b5565b5b5b600073ffffffffffffffffffffffffffffffffffffffff168273ffffffffffffffffffffffffffffffffffffffff161415611ca857611ca381612322565b611ce7565b8273ffffffffffffffffffffffffffffffffffffffff168273ffffffffffffffffffffffffffffffffffffffff1614611ce657611ce582826123f3565b5b5b505050565b6000808273ffffffffffffffffffffffffffffffffffffffff163b119050919050565b6000611d1a82610802565b9050611d28816000846117f5565b611d33600083610e98565b6001600460008373ffffffffffffffffffffffffffffffffffffffff1673ffffffffffffffffffffffffffffffffffffffff1681526020019081526020016000206000828254611d839190613249565b925050819055506003600083815260200190815260200160002060006101000a81549073ffffffffffffffffffffffffffffffffffffffff021916905581600073ffffffffffffffffffffffffffffffffffffffff168273ffffffffffffffffffffffffffffffffffffffff167fddf252ad1be2c89b69c2b068fc378daa952ba7f163c4a11628f55a4df523b3ef60405160405180910390a4611e2881600084611866565b5050565b60606000821415611e74576040518060400160405280600181526020017f30000000000000000000000000000000000000000000000000000000000000008152509050611f88565b600082905060005b60008214611ea6578080611e8f90613396565b915050600a82611e9f9190613218565b9150611e7c565b60008167ffffffffffffffff811115611ec257611ec16134fb565b5b6040519080825280601f01601f191660200182016040528015611ef45781602001600182028036833780820191505090505b5090505b60008514611f8157600182611f0d9190613249565b9150600a85611f1c91906133df565b6030611f2891906131c2565b60f81b818381518110611f3e57611f3d6134cc565b5b60200101907effffffffffffffffffffffffffffffffffffffffffffffffffffffffffffff1916908160001a905350600a85611f7a9190613218565b9450611ef8565b8093505050505b919050565b600073ffffffffffffffffffffffffffffffffffffffff168273ffffffffffffffffffffffffffffffffffffffff161415611ffd576040517f08c379a0000000000000000000000000000000000000000000000000000000008152600401611ff490612f9d565b60405180910390fd5b61200681610e24565b15612046576040517f08c379a000000000000000000000000000000000000000000000000000000000815260040161203d90612e9d565b60405180910390fd5b612052600083836117f5565b6001600460008473ffffffffffffffffffffffffffffffffffffffff1673ffffffffffffffffffffffffffffffffffffffff16815260200190815260200160002060008282546120a291906131c2565b92505081905550816003600083815260200190815260200160002060006101000a81548173ffffffffffffffffffffffffffffffffffffffff021916908373ffffffffffffffffffffffffffffffffffffffff160217905550808273ffffffffffffffffffffffffffffffffffffffff16600073ffffffffffffffffffffffffffffffffffffffff167fddf252ad1be2c89b69c2b068fc378daa952ba7f163c4a11628f55a4df523b3ef60405160405180910390a461216360008383611866565b5050565b505050565b600980549050600a600083815260200190815260200160002081905550600981908060018154018082558091505060019003906000526020600020016000909190919091505550565b600060016121c2846108b4565b6121cc9190613249565b90506000600860008481526020019081526020016000205490508181146122b1576000600760008673ffffffffffffffffffffffffffffffffffffffff1673ffffffffffffffffffffffffffffffffffffffff168152602001908152602001600020600084815260200190815260200160002054905080600760008773ffffffffffffffffffffffffffffffffffffffff1673ffffffffffffffffffffffffffffffffffffffff168152602001908152602001600020600084815260200190815260200160002081905550816008600083815260200190815260200160002081905550505b6008600084815260200190815260200160002060009055600760008573ffffffffffffffffffffffffffffffffffffffff1673ffffffffffffffffffffffffffffffffffffffff16815260200190815260200160002060008381526020019081526020016000206000905550505050565b600060016009805490506123369190613249565b90506000600a6000848152602001908152602001600020549050600060098381548110612366576123656134cc565b5b906000526020600020015490508060098381548110612388576123876134cc565b5b906000526020600020018190555081600a600083815260200190815260200160002081905550600a60008581526020019081526020016000206000905560098054806123d7576123d661349d565b5b6001900381819060005260206000200160009055905550505050565b60006123fe836108b4565b905081600760008573ffffffffffffffffffffffffffffffffffffffff1673ffffffffffffffffffffffffffffffffffffffff168152602001908152602001600020600083815260200190815260200160002081905550806008600084815260200190815260200160002081905550505050565b82805461247e90613333565b90600052602060002090601f0160209004810192826124a057600085556124e7565b82601f106124b957805160ff19168380011785556124e7565b828001600101855582156124e7579182015b828111156124e65782518255916020019190600101906124cb565b5b5090506124f49190612538565b5090565b50805461250490613333565b6000825580601f106125165750612535565b601f0160209004906000526020600020908101906125349190612538565b5b50565b5b80821115612551576000816000905550600101612539565b5090565b60006125686125638461311d565b6130f8565b9050828152602081018484840111156125845761258361352f565b5b61258f8482856132f1565b509392505050565b60006125aa6125a58461314e565b6130f8565b9050828152602081018484840111156125c6576125c561352f565b5b6125d18482856132f1565b509392505050565b6000813590506125e881613b5e565b92915050565b6000813590506125fd81613b75565b92915050565b60008135905061261281613b8c565b92915050565b60008151905061262781613b8c565b92915050565b600082601f8301126126425761264161352a565b5b8135612652848260208601612555565b91505092915050565b600082601f8301126126705761266f61352a565b5b8135612680848260208601612597565b91505092915050565b60008135905061269881613ba3565b92915050565b6000602082840312156126b4576126b3613539565b5b60006126c2848285016125d9565b91505092915050565b600080604083850312156126e2576126e1613539565b5b60006126f0858286016125d9565b9250506020612701858286016125d9565b9150509250929050565b60008060006060848603121561272457612723613539565b5b6000612732868287016125d9565b9350506020612743868287016125d9565b925050604061275486828701612689565b9150509250925092565b6000806000806080858703121561277857612777613539565b5b6000612786878288016125d9565b9450506020612797878288016125d9565b93505060406127a887828801612689565b925050606085013567ffffffffffffffff8111156127c9576127c8613534565b5b6127d58782880161262d565b91505092959194509250565b600080604083850312156127f8576127f7613539565b5b6000612806858286016125d9565b9250506020612817858286016125ee565b9150509250929050565b6000806040838503121561283857612837613539565b5b6000612846858286016125d9565b925050602061285785828601612689565b9150509250929050565b60006020828403121561287757612876613539565b5b600061288584828501612603565b91505092915050565b6000602082840312156128a4576128a3613539565b5b60006128b284828501612618565b91505092915050565b6000602082840312156128d1576128d0613539565b5b600082013567ffffffffffffffff8111156128ef576128ee613534565b5b6128fb8482850161265b565b91505092915050565b60006020828403121561291a57612919613539565b5b600061292884828501612689565b91505092915050565b61293a8161327d565b82525050565b6129498161328f565b82525050565b600061295a8261317f565b6129648185613195565b9350612974818560208601613300565b61297d8161353e565b840191505092915050565b60006129938261318a565b61299d81856131a6565b93506129ad818560208601613300565b6129b68161353e565b840191505092915050565b60006129cc8261318a565b6129d681856131b7565b93506129e6818560208601613300565b80840191505092915050565b60006129ff602b836131a6565b9150612a0a8261354f565b604082019050919050565b6000612a226032836131a6565b9150612a2d8261359e565b604082019050919050565b6000612a456026836131a6565b9150612a50826135ed565b604082019050919050565b6000612a686025836131a6565b9150612a738261363c565b604082019050919050565b6000612a8b601c836131a6565b9150612a968261368b565b602082019050919050565b6000612aae6024836131a6565b9150612ab9826136b4565b604082019050919050565b6000612ad16019836131a6565b9150612adc82613703565b602082019050919050565b6000612af4602c836131a6565b9150612aff8261372c565b604082019050919050565b6000612b176038836131a6565b9150612b228261377b565b604082019050919050565b6000612b3a602a836131a6565b9150612b45826137ca565b604082019050919050565b6000612b5d6029836131a6565b9150612b6882613819565b604082019050919050565b6000612b80602e836131a6565b9150612b8b82613868565b604082019050919050565b6000612ba36020836131a6565b9150612bae826138b7565b602082019050919050565b6000612bc66031836131a6565b9150612bd1826138e0565b604082019050919050565b6000612be9602c836131a6565b9150612bf48261392f565b604082019050919050565b6000612c0c6005836131b7565b9150612c178261397e565b600582019050919050565b6000612c2f6020836131a6565b9150612c3a826139a7565b602082019050919050565b6000612c52602f836131a6565b9150612c5d826139d0565b604082019050919050565b6000612c75601e836131a6565b9150612c8082613a1f565b602082019050919050565b6000612c986021836131a6565b9150612ca382613a48565b604082019050919050565b6000612cbb6031836131a6565b9150612cc682613a97565b604082019050919050565b6000612cde602c836131a6565b9150612ce982613ae6565b604082019050919050565b6000612d016013836131a6565b9150612d0c82613b35565b602082019050919050565b612d20816132e7565b82525050565b6000612d3282856129c1565b9150612d3e82846129c1565b91508190509392505050565b6000612d5682856129c1565b9150612d6282846129c1565b9150612d6d82612bff565b91508190509392505050565b6000602082019050612d8e6000830184612931565b92915050565b6000608082019050612da96000830187612931565b612db66020830186612931565b612dc36040830185612d17565b8181036060830152612dd5818461294f565b905095945050505050565b6000602082019050612df56000830184612940565b92915050565b60006020820190508181036000830152612e158184612988565b905092915050565b60006020820190508181036000830152612e36816129f2565b9050919050565b60006020820190508181036000830152612e5681612a15565b9050919050565b60006020820190508181036000830152612e7681612a38565b9050919050565b60006020820190508181036000830152612e9681612a5b565b9050919050565b60006020820190508181036000830152612eb681612a7e565b9050919050565b60006020820190508181036000830152612ed681612aa1565b9050919050565b60006020820190508181036000830152612ef681612ac4565b9050919050565b60006020820190508181036000830152612f1681612ae7565b9050919050565b60006020820190508181036000830152612f3681612b0a565b9050919050565b60006020820190508181036000830152612f5681612b2d565b9050919050565b60006020820190508181036000830152612f7681612b50565b9050919050565b60006020820190508181036000830152612f9681612b73565b9050919050565b60006020820190508181036000830152612fb681612b96565b9050919050565b60006020820190508181036000830152612fd681612bb9565b9050919050565b60006020820190508181036000830152612ff681612bdc565b9050919050565b6000602082019050818103600083015261301681612c22565b9050919050565b6000602082019050818103600083015261303681612c45565b9050919050565b6000602082019050818103600083015261305681612c68565b9050919050565b6000602082019050818103600083015261307681612c8b565b9050919050565b6000602082019050818103600083015261309681612cae565b9050919050565b600060208201905081810360008301526130b681612cd1565b9050919050565b600060208201905081810360008301526130d681612cf4565b9050919050565b60006020820190506130f26000830184612d17565b92915050565b6000613102613113565b905061310e8282613365565b919050565b6000604051905090565b600067ffffffffffffffff821115613138576131376134fb565b5b6131418261353e565b9050602081019050919050565b600067ffffffffffffffff821115613169576131686134fb565b5b6131728261353e565b9050602081019050919050565b600081519050919050565b600081519050919050565b600082825260208201905092915050565b600082825260208201905092915050565b600081905092915050565b60006131cd826132e7565b91506131d8836132e7565b9250827fffffffffffffffffffffffffffffffffffffffffffffffffffffffffffffffff0382111561320d5761320c613410565b5b828201905092915050565b6000613223826132e7565b915061322e836132e7565b92508261323e5761323d61343f565b5b828204905092915050565b6000613254826132e7565b915061325f836132e7565b92508282101561327257613271613410565b5b828203905092915050565b6000613288826132c7565b9050919050565b60008115159050919050565b60007fffffffff0000000000000000000000000000000000000000000000000000000082169050919050565b600073ffffffffffffffffffffffffffffffffffffffff82169050919050565b6000819050919050565b82818337600083830152505050565b60005b8381101561331e578082015181840152602081019050613303565b8381111561332d576000848401525b50505050565b6000600282049050600182168061334b57607f821691505b6020821081141561335f5761335e61346e565b5b50919050565b61336e8261353e565b810181811067ffffffffffffffff8211171561338d5761338c6134fb565b5b80604052505050565b60006133a1826132e7565b91507fffffffffffffffffffffffffffffffffffffffffffffffffffffffffffffffff8214156133d4576133d3613410565b5b600182019050919050565b60006133ea826132e7565b91506133f5836132e7565b9250826134055761340461343f565b5b828206905092915050565b7f4e487b7100000000000000000000000000000000000000000000000000000000600052601160045260246000fd5b7f4e487b7100000000000000000000000000000000000000000000000000000000600052601260045260246000fd5b7f4e487b7100000000000000000000000000000000000000000000000000000000600052602260045260246000fd5b7f4e487b7100000000000000000000000000000000000000000000000000000000600052603160045260246000fd5b7f4e487b7100000000000000000000000000000000000000000000000000000000600052603260045260246000fd5b7f4e487b7100000000000000000000000000000000000000000000000000000000600052604160045260246000fd5b600080fd5b600080fd5b600080fd5b600080fd5b6000601f19601f8301169050919050565b7f455243373231456e756d657261626c653a206f776e657220696e646578206f7560008201527f74206f6620626f756e6473000000000000000000000000000000000000000000602082015250565b7f4552433732313a207472616e7366657220746f206e6f6e20455243373231526560008201527f63656976657220696d706c656d656e7465720000000000000000000000000000602082015250565b7f4f776e61626c653a206e6577206f776e657220697320746865207a65726f206160008201527f6464726573730000000000000000000000000000000000000000000000000000602082015250565b7f4552433732313a207472616e736665722066726f6d20696e636f72726563742060008201527f6f776e6572000000000000000000000000000000000000000000000000000000602082015250565b7f4552433732313a20746f6b656e20616c7265616479206d696e74656400000000600082015250565b7f4552433732313a207472616e7366657220746f20746865207a65726f2061646460008201527f7265737300000000000000000000000000000000000000000000000000000000602082015250565b7f4552433732313a20617070726f766520746f2063616c6c657200000000000000600082015250565b7f4552433732313a206f70657261746f7220717565727920666f72206e6f6e657860008201527f697374656e7420746f6b656e0000000000000000000000000000000000000000602082015250565b7f4552433732313a20617070726f76652063616c6c6572206973206e6f74206f7760008201527f6e6572206e6f7220617070726f76656420666f7220616c6c0000000000000000602082015250565b7f4552433732313a2062616c616e636520717565727920666f7220746865207a6560008201527f726f206164647265737300000000000000000000000000000000000000000000602082015250565b7f4552433732313a206f776e657220717565727920666f72206e6f6e657869737460008201527f656e7420746f6b656e0000000000000000000000000000000000000000000000602082015250565b7f45524337323155524953746f726167653a2055524920736574206f66206e6f6e60008201527f6578697374656e7420746f6b656e000000000000000000000000000000000000602082015250565b7f4552433732313a206d696e7420746f20746865207a65726f2061646472657373600082015250565b7f45524337323155524953746f726167653a2055524920717565727920666f722060008201527f6e6f6e6578697374656e7420746f6b656e000000000000000000000000000000602082015250565b7f4552433732313a20617070726f76656420717565727920666f72206e6f6e657860008201527f697374656e7420746f6b656e0000000000000000000000000000000000000000602082015250565b7f2e6a736f6e000000000000000000000000000000000000000000000000000000600082015250565b7f4f776e61626c653a2063616c6c6572206973206e6f7420746865206f776e6572600082015250565b7f4552433732314d657461646174613a2055524920717565727920666f72206e6f60008201527f6e6578697374656e7420746f6b656e0000000000000000000000000000000000602082015250565b7f4f6e6c79204f776e65722063616e2064657374726f7920746865204e46540000600082015250565b7f4552433732313a20617070726f76616c20746f2063757272656e74206f776e6560008201527f7200000000000000000000000000000000000000000000000000000000000000602082015250565b7f4552433732313a207472616e736665722063616c6c6572206973206e6f74206f60008201527f776e6572206e6f7220617070726f766564000000000000000000000000000000602082015250565b7f455243373231456e756d657261626c653a20676c6f62616c20696e646578206f60008201527f7574206f6620626f756e64730000000000000000000000000000000000000000602082015250565b7f43616e6e6f74207472616e736665722053425400000000000000000000000000600082015250565b613b678161327d565b8114613b7257600080fd5b50565b613b7e8161328f565b8114613b8957600080fd5b50565b613b958161329b565b8114613ba057600080fd5b50565b613bac816132e7565b8114613bb757600080fd5b5056fea2646970667358221220c1835c7e427848aa6ec48f357764114a3c837f9d163a3d8a716f45881eb1ba0264736f6c63430008070033",
  "immutableReferences": {},
  "source": "// SPDX-License-Identifier: MIT\r\npragma solidity ^0.8.7;\r\n\r\nimport \"./ERC721.sol\";\r\nimport \"./ERC721Enumerable.sol\";\r\nimport \"./ERC721URIStorage.sol\";\r\n\r\n\r\ncontract soulboundToken is ERC721, ERC721Enumerable,ERC721URIStorage{\r\n        \r\n    uint256 TotalTokenCount;\r\n    mapping(uint256 => bool) _locked;\r\n    constructor(string memory _name, string memory _symbol) ERC721(_name, _symbol) {}\r\n    \r\n    function createNFT(string memory uri) public {             \r\n        _safeMint(msg.sender, TotalTokenCount);                                                             //minting of nft\r\n        _setTokenURI(TotalTokenCount, uri); \r\n        _locked[TotalTokenCount] = true;                                                               //set the token URI\r\n        TotalTokenCount +=1;\r\n    }\r\n\r\n    function destroyNFT(uint256 tokenId) public {\r\n        require(msg.sender == ownerOf(tokenId),\"Only Owner can destroy the NFT\");\r\n        _burn(tokenId);      \r\n    }\r\n\r\n    function _burn(uint256 tokenId) internal override(ERC721, ERC721URIStorage){\r\n        super._burn(tokenId);\r\n    }\r\n\r\n    function tokenURI(uint256 tokenId) public view override(ERC721, ERC721URIStorage) returns (string memory){\r\n        return super.tokenURI(tokenId);\r\n    }\r\n\r\n    // The following functions are overrides required by Solidity.\r\n\r\n    function _beforeTokenTransfer(address from, address to, uint256 tokenId)\r\n        internal\r\n        override(ERC721, ERC721Enumerable)\r\n    {\r\n        require(!_locked[tokenId],\"Cannot transfer SBT\");\r\n        super._beforeTokenTransfer(from, to, tokenId);\r\n    }\r\n\r\n    function supportsInterface(bytes4 interfaceId)\r\n        public\r\n        view\r\n        override(ERC721, ERC721Enumerable)\r\n        returns (bool)\r\n    {\r\n        return super.supportsInterface(interfaceId);\r\n    }\r\n}\r\n",
  "sourcePath": "C:\\Users\\RAJDEEP\\Desktop\\JOB\\Freelance\\Intershala Assignment\\Web3Nest Metaverse Private Limited\\contracts\\soulBoundToken.sol",
  "compiler": {
    "name": "solc",
    "version": "0.8.7+commit.e28d00a7.Emscripten.clang"
  },
  "schemaVersion": "3.4.3",
  "updatedAt": "2023-03-11T22:20:33.070Z",
  "networkType": "ethereum",
  "devdoc": {
    "kind": "dev",
    "methods": {
      "approve(address,uint256)": {
        "details": "See {IERC721-approve}."
      },
      "balanceOf(address)": {
        "details": "See {IERC721-balanceOf}."
      },
      "getApproved(uint256)": {
        "details": "See {IERC721-getApproved}."
      },
      "isApprovedForAll(address,address)": {
        "details": "See {IERC721-isApprovedForAll}."
      },
      "name()": {
        "details": "See {IERC721Metadata-name}."
      },
      "owner()": {
        "details": "Returns the address of the current owner."
      },
      "ownerOf(uint256)": {
        "details": "See {IERC721-ownerOf}."
      },
      "renounceOwnership()": {
        "details": "Leaves the contract without owner. It will not be possible to call `onlyOwner` functions anymore. Can only be called by the current owner. NOTE: Renouncing ownership will leave the contract without an owner, thereby removing any functionality that is only available to the owner."
      },
      "safeTransferFrom(address,address,uint256)": {
        "details": "See {IERC721-safeTransferFrom}."
      },
      "safeTransferFrom(address,address,uint256,bytes)": {
        "details": "See {IERC721-safeTransferFrom}."
      },
      "setApprovalForAll(address,bool)": {
        "details": "See {IERC721-setApprovalForAll}."
      },
      "symbol()": {
        "details": "See {IERC721Metadata-symbol}."
      },
      "tokenByIndex(uint256)": {
        "details": "See {IERC721Enumerable-tokenByIndex}."
      },
      "tokenOfOwnerByIndex(address,uint256)": {
        "details": "See {IERC721Enumerable-tokenOfOwnerByIndex}."
      },
      "totalSupply()": {
        "details": "See {IERC721Enumerable-totalSupply}."
      },
      "transferFrom(address,address,uint256)": {
        "details": "See {IERC721-transferFrom}."
      },
      "transferOwnership(address)": {
        "details": "Transfers ownership of the contract to a new account (`newOwner`). Can only be called by the current owner."
      }
    },
    "version": 1
  },
  "userdoc": {
    "kind": "user",
    "methods": {},
    "version": 1
  }
}